:1000000000800020BD010000012D0000C52C000073
:10001000C52C0000C52C0000C52C0000C52C00001C
:10002000C52C0000C52C0000C52C0000012D0000CF
:10003000012D0000C52C0000012D0000B52C000092
:10004000012D0000012D0000012D0000012D0000F8
:10005000012D0000012D0000012D0000012D0000E8
:10006000012D0000012D0000012D0000012D0000D8
:10007000012D0000012D0000012D0000012D0000C8
:10008000012D0000012D0000012D0000012D0000B8
:10009000012D0000012D0000012D0000012D0000A8
:1000A000012D0000012D0000012D0000012D000098
:1000B000012D0000012D0000012D0000012D000088
:1000C000012D0000012D0000012D0000012D000078
:1000D000012D0000012D0000012D0000012D000068
:1000E000012D0000012D0000012D0000012D000058
:1000F000012D000031340000012D0000993B00006B
:10010000012D00001D410000012D0000012D000007
:10011000012D0000012D0000012D0000012D000027
:10012000012D0000012D0000012D0000012D000017
:10013000012D0000012D0000012D0000012D000007
:10014000012D0000012D0000012D0000012D0000F7
:10015000012D0000012D0000012D0000012D0000E7
:10016000012D0000811C0000012D0000012D000068
:10017000012D0000012D0000012D0000012D0000C7
:10018000012D0000012D0000012D0000012D0000B7
:10019000012D0000012D0000012D0000012D0000A7
:1001A000012D0000012D0000012D0000012D000097
:1001B000012D0000012D0000012D0000564B4CF2D6
:1001C000205210B51A804DF628121A8000BF00BFC9
:1001D00002F09AFD514B4FF010621A60504A9A603B
:1001E000504ADA60504A136813F4807304D14F49BF
:1001F0000B604FF4A85313604D4B1A78110703D5C9
:100200001A7842F008021A704A4B4B492A221A7097
:100210004A4A4B4B8B4204D252F8040F43F8040B6A
:10022000F8E7484B484900228B4202D243F8042B9E
:10023000FAE74649464A002352F8230041F82300D2
:1002400001336F2BF8D1434B434A802103F8011B44
:100250009342FBD1414B3D4A1A60414B8A221A70AE
:10026000A3F5805324225A70A0221A709A7992071B
:10027000FCD59A79D406FCD43A4A937903F00C035E
:10028000082B384BF9D103221A7140225A719A79FE
:100290009006FCD5334A9179324B4906FBD5324A58
:1002A000324911600221516020221A709A7902F0BD
:1002B0000C020C2AFAD12E4B2E4A1A602E4B2F4AD2
:1002C0001A6000225A60072243F8042C2C4AC3F813
:1002D0000C2D62B601F092FB144B1B68DA0705D5B2
:1002E000284801F0CDF9284B284A1A60284B1B7882
:1002F0005B0609D5244C254B22689A4204D121483B
:1003000001F0BEF90023236005F008F902F002FDB8
:1003100002F0CEFBFEE700BF0E2005403080044017
:10032000823F04000100002B10D0034014D0034092
:1003300002D0074000E007402898FF1F7CAB000078
:10034000308CFF1F2898FF1F589CFF1F0082FF1F43
:100350000000000000E400E05FE400E008ED00E0E1
:100360000050064000400640448004400000030165
:1003700004800440C010050014E000E0FF76010096
:1003800000002020E7391A591CE00340A5C3945A05
:1003900000F00740FFFFFFFFFFFFFFFFFFFFFFFF32
:1003A000FFFFFFFFFFFFFFFFFFFFFFFFFFFFFFFF5D
:1003B000FFFFFFFFFFFFFFFFFFFFFFFFFFFFFFFF4D
:1003C000FFFFFFFFFFFFFFFFFFFFFFFFFFFFFFFF3D
:1003D000FFFFFFFFFFFFFFFFFFFFFFFFFFFFFFFF2D
:1003E000FFFFFFFFFFFFFFFFFFFFFFFFFFFFFFFF1D
:1003F000FFFFFFFFFFFFFFFFFFFFFFFFFFFFFFFF0D
:10040000FFFFFFFFFFFFFFFFFFFFFFFFDEF9FFFF23
:1004100010B5054C237833B9044B13B10448AFF33E
:1004200000800123237010BD2898FF1F00000000EA
:1004300078AB0000084B10B51BB108490848AFF372
:1004400000800848036803B910BD074B002BFBD0A0
:10045000BDE81040184700BF000000002C98FF1FA7
:1004600078AB00002898FF1F000000000B4B9B7D1D
:10047000042B04BF0A4B1B78012B08D0022B08D099
:10048000032B08D0052B0CBF032000207047002051
:100490007047012070470220704700BFAC98FF1FD3
:1004A0006498FF1F70B50546662303601C214160F8
:1004B0000B4800F005FE88B1013D0024084E21469E
:1004C000304600F067FE15F8012F904203D0214618
:1004D000304600F035FE01341C2CF0D170BD00BF59
:1004E000CC98FF1F08B5364A536823F47F5323F096
:1004F000300343F400535360324B1B780BB901F0C7
:10050000ABFF2F4A536823F47F0323F4404343F4A3
:10051000000353602B4B1B780BB901F09DFF284A59
:10052000936823F47F6323F00C0343F40063936028
:10053000244B1B780BB901F08FFF214A936823F4F9
:100540007F1323F4405343F4001393601D4B1B7837
:100550000BB901F081FF1A4A9368C3F3150343F006
:1005600000439360174B1B780BB901F075FF144AD9
:10057000536843F00F035360124B1B780BB901F023
:100580006BFF0F4B5A6822F07F425A609A6822F044
:1005900003029A600B4B1B780BB901F05DFF084A10
:1005A000136823F001031360064B1B780BB901F0AD
:1005B00053FF0022044B1A7001F04EFF08BD00BF2C
:1005C0003C9CFF1F199AFF1FF899FF1F70B5054645
:1005D0000E46144641F2883240210C4800F0E4FCFB
:1005E00060B10A220021094805F0ECFFA84228BFAB
:1005F0002846B04238BF3046044605E00448036848
:100600005B680A2203499847204670BD6898FF1F1F
:10061000249AFF1F449D000070B50021324800F06D
:10062000B5FB0221062001F06DF8304B1868304907
:10063000304C1A46304E0B7813F0FF0F46D023781B
:1006400013F0030F42D0136835685B1B182B3DD99C
:1006500041F28831294802F029FA0122284B1A7008
:10066000FFF740FFC821274800F028FD264C1C2238
:100670000021204600F0BEFF2368662B2CD1636862
:100680001C2B29D10121204B9B7D013BDBB2042B8C
:1006900002D903221C4B9A751B4BDB7D13B96422D4
:1006A000194BDA75184B9A7D184B1A7011B9164808
:1006B000FFF7F8FEFFF7DAFE154B03EB0010124BC5
:1006C000DA7D4168084800F06FFB70BD13681B1AA3
:1006D000B3F57A7FAFD9BBE70B4B05221A760A2216
:1006E0005A760021CFE700BF4C98FF1FD898FF1F14
:1006F000F099FF1F189AFF1F509CFF1F249AFF1F9D
:10070000199AFF1FCC98FF1FAC98FF1F6498FF1F1A
:10071000289C00002DE9F04383B0002000F058FE33
:1007200004469E4B9D7D6B1EDBB2022B00F2A38024
:100730009A4BDE689868801B04F0ACFC07460021E9
:1007400004F0BCFEC8B1A0B2B04238BF304680B29F
:10075000801B04F09FFC394604F0A8FD904904F08A
:10076000F1FC0446002104F08BFE40B98C49204680
:1007700004F0A4FE20B18A4C02E0002400E0002432
:10078000032D22D18649204604F090FD854904F0CE
:10079000D9FC04F09DFE40F2FF33984228BF184672
:1007A00081494A6822F07F4242EA00624A608B68CF
:1007B00023F0030343EA102088607C4B1B780BB9BD
:1007C00001F04AFE01F048FE95E1022D2ED1734B57
:1007D0001D69284604F05EFC0146204604F064FED4
:1007E00050B1714A136843F0010313606F4B1B78DB
:1007F000CBB901F031FE16E0681F04F04BFC014656
:10080000204604F03DFE20B90021204604F02EFED3
:1008100048B1654A136823F001031360634B1B78EA
:100820000BB901F019FE01F017FE64E1012D40F053
:1008300062815A4B1D69284604F02CFC0146204673
:1008400004F032FE20B1554B9A8A594B1A700FE0D2
:10085000681F04F01FFC0146204604F011FE20B979
:100860000021204604F002FE10B10022504B1A7005
:1008700001F04AFE3FE1052D40F0268101F08EFF98
:10088000002840F3388101F03DFFC0B2312869D122
:10089000484803685B681A2247499847474F3E46D5
:1008A0000024DFF83C91434DDFF8388156F8042FDF
:1008B0004946284602F0A6F85E2C05D82B685B68EE
:1008C00002224146284698470134602CEED139482F
:1008D00003685B6839223A499847304B9C8A41F259
:1008E00088324021374800F05FFB00B3354D0023CC
:1008F00085F83F306A1E3F3501321378A3F161015C
:10090000C9B219299CBF203BDBB21370AA42F3D1B4
:1009100000252C4E314657F8040F05F0C5FB18B1E1
:100920000135602DF6D102E0274B33F815404FF228
:1009300004039C420BD0244A012332F8021FA14237
:1009400000F07B810133602BF7D1002300E000230E
:10095000124A94821D4A52F823201D49154802F07C
:1009600051F8C8E032283FD1124C23685B682C2232
:10097000184920469847094D32232A6916492046CE
:1009800002F040F82A6905215F20FFF71FFE0246AA
:1009900028611249204602F035F8ACE0AC98FF1F00
:1009A0000000C84200C07F443C9CFF1F199AFF1FF3
:1009B000F899FF1F249AFF1F509D0000DCA1000042
:1009C000749D00006898FF1F689C0000E0A1000073
:1009D000B09D0000C49D0000F49D0000109E00002A
:1009E0006C9D0000709D0000332819D1964C23683F
:1009F0005B682722954920469847954D6423EA7DF8
:100A00009449204601F0FEFFEA7D0121FF20FFF717
:100A1000DDFDE875C2B29049204601F0F3FF6AE0BF
:100A2000342819D1884C23685B682B228B492046D7
:100A30009847874D05232A7E8649204601F0E2FF2C
:100A40002A7E00216420FFF7C1FD2876C2B28249C8
:100A5000204601F0D7FF4EE0352819D17A4C2368A3
:100A60005B682B227E4920469847794D0A236A7E8F
:100A70007849204601F0C6FF6A7E00216420FFF716
:100A8000A5FD6876C2B27449204601F0BBFF32E092
:100A900000F0DF00442814D16D4E3446714D0FCD67
:100AA0000FC495E8070084E807003046FFF7FAFC1A
:100AB0000523B375644803685B6843226A49984715
:100AC00019E000F013FA16E0042D0DD184B2674A44
:100AD0001388A34228BF23461380654B1A8894428B
:100AE00038BF14461C8006E0624B40F2A3126249F4
:100AF000624800F0C5FA062000F0F6FD78B9604BB8
:100B00001B680193019B5F4A12689B1A41F288326D
:100B100093422AD904224E4B9A75002228E0584B62
:100B20001B680093009A574B1A60574B1B78F3B120
:100B3000FFF79CFC464B9B7D042B03D0013004281F
:100B400028BF0020424B514A0001141812589A75D0
:100B50004F4DDA7D6168284600F026F9227BA168B6
:100B6000284600F03BF9002202E0012200E00022CA
:100B7000454B1A70364B9B7D464A1278934251D0B2
:100B800045490A70013BDBB2022B02D83048FFF71F
:100B900089FC2F4B9B7D052B02D100F0A7F914E0B7
:100BA000042B12D13A4C6FF07F41204600F0EEF852
:100BB00032224FF4FA71204600F010F94FF6FF721E
:100BC0002A4B1A8000222A4B1A80324B1B78042BA6
:100BD00026D1274B1D88254B1F88E81B04F05EFAA1
:100BE00080461B4C607E04F055FA2C4904F05EFBF5
:100BF000414604F0A7FA04F06BFC0646207E04F0A0
:100C000049FA264904F052FB414604F09BFA04F0ED
:100C10005FFC281AA0603E44E6602046FFF742FCD5
:100C2000FFF760FC1A4800F049F9094B9A7D194B0F
:100C30001A70052000F0CCFE03E0602B08BF0023F3
:100C400086E603B0BDE8F083249AFF1F289E0000CB
:100C5000AC98FF1FF49D0000109E0000509E000005
:100C60007C9E0000289D0000A89E00005A8CFF1F5B
:100C7000AA98FF1FEC9E0000F49E000060A30000F5
:100C8000D898FF1F4898FF1F4498FF1F289C00001A
:100C90004C98FF1FA898FF1F6498FF1F0000C842D0
:100CA00008B5052304220321014800F003F808BD1C
:100CB0004C98FF1FF8B50446084617461E46002309
:100CC000E37023716371A371A36064222273637361
:100CD00023610125257521706770A670294600F0F3
:100CE00011FD2946384600F00DFD2946304600F03A
:100CF00009FD2046F8BD00BFF8B507469DF818600D
:100D0000C6F1FF008842DDBF4C1C56FA84F4E4B201
:100D100000249842DDBF5D1C56FA85F5EDB2002532
:100D20009042DDBF013256FA82F6F6B20026BB7958
:100D3000012B0CD12146387800F024FD314678781B
:100D400000F020FD2946B87800F01CFD0EE0C4F547
:100D50008071387800F016FDC6F58071787800F063
:100D600011FDC5F58071B87800F00CFD0CB905B91E
:100D700016B1FC703E717D71F8BD00BF10B582B038
:100D8000FF240094FFF7B8FF02B010BD00B583B098
:100D9000FF230093CBB2C1F30722C1F30741FFF752
:100DA000ABFF03B05DF804FB00B583B00092CBB29B
:100DB000C1F30722C1F30741FFF79EFF03B05DF8BF
:100DC00004FB00BF10B5044600234373C1780279C9
:100DD0004379FFF7D3FF0123237510BD10B50446F7
:100DE000C9B1642A09D100234373C17802794379D8
:100DF000FFF7C4FF0123237510BD1AB90021FFF7C7
:100E0000C5FF10BDA160642AA8BF6422027301233C
:100E10004373037510BDFFF7D5FF10BD2DE9F043F7
:100E200083B00446234B1B680193DDF8048080687F
:100E300004F030F90646207B04F02CF90746014601
:100E40001D4804F075F81C4904F030FA314604F0EE
:100E500079F904F03DFB81462569C5EB0805164983
:100E6000384604F023FA314604F06CF904F030FB04
:100E7000A8420AD8237DBBB1C4F8108000212046C7
:100E8000FFF784FF0023237510E0A9450ED8237DCA
:100E900063B9C4F81080E178227963792046FFF7BE
:100EA0006DFF0123237501E0A945F2D903B0BDE828
:100EB000F08300BFD898FF1F0000C84208B5437BED
:100EC0000BB1FFF7ABFF08BD38B504460D46084629
:100ED00005F056FA23685B68024629462046984783
:100EE0000546204601F076FD284438BD10B5254C56
:100EF00023685B682222244920469847204601F057
:100F000069FD23685B6823222049204698472046D4
:100F100001F060FD23685B6823221D492046984745
:100F2000204601F057FD23685B68232219492046BB
:100F30009847204601F04EFD23685B68232216493E
:100F400020469847204601F045FD23685B68232230
:100F5000124920469847204601F03CFD23685B6813
:100F600023220F4920469847204601F033FD23688D
:100F70005B6818220B4920469847204601F02AFD5D
:100F800010BD00BF249AFF1F68A300008CA30000BF
:100F9000B0A30000D4A30000F8A300001CA400002C
:100FA00040A4000064A400002DE9F04F85B0264B5A
:100FB0001B680193019E1644B1F1010834D0934699
:100FC000814600252C46204F04E0BAF1000F27D1BE
:100FD000002B2BDA01F0E2FB002829DD01F092FB67
:100FE000C0B20A280AD00D280BD009F805003B68CA
:100FF0000293029E5E444FF0000A04E04FF0010AA3
:1010000001E04FF0010A0134E4B219F8050001F0E3
:101010006BFC3B680393039B9B1B25464445D4D341
:10102000002BA8BF00250BE0454609E0002507E09E
:101030003B680393039B9B1B2546A045C8D8EFE75D
:10104000284605B0BDE8F08FD898FF1F10B586B0D0
:101050000523042203216846FFF72CFE4FF47F018D
:101060006846FFF793FE3222FA216846FFF7B6FE84
:1010700005246846FFF722FF204600F0A9FCF8E7A8
:1010800080B50F4616461D460B4C01462046FFF71D
:101090001BFF39462046FFF717FF3146204601F077
:1010A000FBFC204601F096FC29462046FFF70CFF8A
:1010B00001F026FCFFF7CAFF249AFF1F016070476A
:1010C00010B5134A13680133136002680AB19342E2
:1010D0000BDD104C23685B6821220F49204698479E
:1010E000204601F077FC002010BD0C4B1B688B42A2
:1010F0000BDA084C23685B68292209492046984787
:10110000204601F067FC002010BD012010BD00BF8B
:10111000C898FF1F249AFF1FDCA400005C8CFF1FEF
:10112000B0A4000070B50C4616460131FFF7C8FFA9
:10113000054618B13146204600F07EFA284670BDBB
:1011400008B5FFF7EFFF08BD094B1B688B420CDAAF
:1011500010B5084C23685B68292207492046984748
:10116000204601F037FC002010BD0120704700BF71
:101170005C8CFF1F249AFF1FB0A4000010B50C4622
:101180000131FFF7E1FF18B1204600F01DFA10BD54
:10119000002010BD08B5FFF7F1FF08BD6422014B28
:1011A0001A607047CC98FF1F394A3A49136813F008
:1011B000800FFBD10B6813F0800FF7D172B6364B5E
:1011C0001B78002B62D030B4344B1D6804331C688C
:1011D000043318680433196804331A6804331B682D
:1011E0002C44204401440A441344C3F34E0343F403
:1011F00000432B4A13602B4B1D6804331C680433D7
:1012000018680433196804331A6804331B682C44C3
:10121000204401440A441344C3F34E0343F40043FF
:10122000214A1360214B1D6804331C68043318687D
:101230000433196804331A6804331B682C442044AF
:1012400001440A441344C3F34E0343F40043184AD1
:101250001360184B1D6804331C680433186804338A
:10126000196804331A6804331B682C442044014471
:101270000A441344C3F34E0343F400430E4A13607D
:101280000022054B1A7062B630BC704762B67047D8
:1012900024B0034024B00B40D198FF1F38B0034066
:1012A0002CB0034058B0034030B0034038B00B407E
:1012B0002CB00B4058B00B4030B00B4060223A4B82
:1012C0001A70E12201331A70384B1B78082B10D1A9
:1012D000012203F1804303F56C331A601323344970
:1012E0000B6001F5FF2101F2FC710A60314A1360C5
:1012F0001FE00A2B0DD139222F4B1A6013232C49E2
:101300000B6001F5FF2101F2FC710A60294A1360AC
:101310000FE00C2B0CBF35223D22274B1A60122305
:1013200023490B6001F5FF2101F2FC710A60214A9B
:101330001360224B1B7833B10123214A136002F55D
:101340000022136005E000231D4A136002F500220D
:1013500013601C4B1B78012B06D880231A4A13609C
:1013600002F5002213601AE0042B06D88423164AE3
:10137000136002F50022136011E0082B06D88523C4
:10138000114A136002F50022136008E0102B94BF8D
:10139000862387230C4A136002F500221360012282
:1013A0000A4B1A70704700BF00400740608CFF1F57
:1013B0000CB003400CB00B4008B00340D498FF1FA2
:1013C00020B00340618CFF1F24B00340D198FF1F61
:1013D000282877D82DE9F8433D4B1E5CFF2E73D0AB
:1013E0003C4B1B780BB1FFF7DFFE16F0800F2AD1C4
:1013F00072B6394C394D4FF0010726602F7062B636
:1014000072B6236813F0800F04D12B7813F0FF0F0E
:10141000F3D00FE0324B1B680021304A117062B6E6
:10142000304A107843FA00F0BDE8F8832B7813F0C7
:10143000FF0FE2D062B601F081FB72B6236813F0B1
:10144000800FF3D0E6E772B606F040085FFA88F83E
:10145000254F264C06F03F06254D4FF00109B8F107
:10146000000F04D03B6823F010033B6003E03B68AF
:1014700043F010033B60266085F8009062B672B6B8
:10148000236813F0800F04D12B7813F0FF0FE6D000
:101490000FE0184B1B680021154A117062B6114A03
:1014A000107843FA00F0BDE8F8832B7813F0FF0FB3
:1014B000D5D062B601F042FB72B6236813F0800FFC
:1014C000F3D0E6E7002070470020BDE8F88300BFB6
:1014D00000A50000D198FF1F00B00340D398FF1F64
:1014E00010B00340D098FF1F0CB00B4000B00B4071
:1014F000D298FF1F10B00B40094A136843F4805381
:101500001360084B1B781BB18022074B1A7002E056
:10151000C022054B1A7080F30C00044B18807047F2
:101520002C800440D498FF1F21C00C4000C00C4008
:10153000024A137813F0010FFBD0704701000240FC
:1015400010B584B01B4B6C46186859689A68DB6804
:101550000FC4194B1B7813F0020F23D0174B1B78C5
:1015600013F070031CBF154A13708022144B1A70BD
:101570000022033B1A70332207331A700322013B07
:101580001A7072B60D4C6B4643F001032046984723
:1015900062B6237813F0700304D0237008E0013B97
:1015A00002D105E0074B04490A7812F0010FF6D08A
:1015B00004B010BD2CA50000010002400000024054
:1015C00007000240410D0300B0F5006F0DD210B5C9
:1015D0000446074B1B7813F0010F01D1FFF7B0FF52
:1015E00004F1A0500078C0B210BD0020704700BFC9
:1015F0000100024070B505460C468E180D4B1B7855
:1016000013F0010F01D1FFF79BFF3246B6F5006FD3
:1016100028BF4FF4006294420AD204F1A051284638
:1016200002F1A05211F8013B00F8013B9142F9D1BF
:1016300070BD00BF01000240B0F5006F1AD238B58E
:101640000D4604460C4B1B7813F0010F01D1FFF738
:1016500077FF04F1A0500378DBB2AB4209D0074B0F
:101660001B7813F070031CBF044A13700570FFF75A
:101670005FFF38BD704700BF01000240000002401C
:10168000044B00221A6004490A60044A10601022C8
:101690001A60704714D0034004D0034000D00340C8
:1016A00021281ED80F4B53F8303093F8802212F0C7
:1016B000FF0F08D019B1012283F880207047012262
:1016C00083F800217047074B03EBC000436821B14A
:1016D0001A6842F003021A6070471A6822F0020288
:1016E0001A6070473CA50000212806D8044B53F827
:1016F000303093F80002C0B270470020704700BF3E
:101700003CA5000021283AD81D4B03EBC0035B68C1
:10171000012919D0042925D0194A52F83020002077
:1017200082F8800219B94FF480721A60704702295A
:1017300003D140F203121A60704703290CBF4FF423
:10174000817200221A6070470D4A52F83020012140
:1017500082F880124FF4A2721A601A6822F02002F6
:101760001A607047064A52F83020012182F8801230
:101770004FF4A2721A601A6842F020021A60704791
:101780003CA5000010B528280FD16F4B1B780B2B00
:1017900003D8C3F10C03994003E00C2B84BF0C3B2E
:1017A00019410846FFF7A8FE10BD0446664B18789D
:1017B00001238340002908DC00212046FFF770FF49
:1017C00001212046FFF79EFF10BD0A468B4208D834
:1017D00001212046FFF764FF01212046FFF792FF19
:1017E00010BDE31EDBB2012B06D8584B1B6803FB70
:1017F000011323FA00F210E0202C01D0192C06D19D
:10180000534B1B6803FB022323FA00F205E0514B04
:101810001B6803FB011323FA00F2E31E1D2B00F2E9
:101820008780DFE803F05F6855378585232D858540
:1018300085858585858585414B0F19857B858585C2
:1018400085858571444B1A6040F2444203F5973315
:1018500003F5FA731A6010BD404B1A6040F244421F
:1018600003F5973303F5F8731A6010BD3C4B1A600B
:1018700040F2444203F5973303F5F6731A6010BD46
:10188000384B1A6040F2444203F5973303F5F47382
:101890001A6010BD344B1A6040F2444203F59F3386
:1018A00003F5F0731A6010BD304B1A6040F24442E9
:1018B00003F59F3303F5EE731A6010BD2C4B1A60CD
:1018C00040F2444203F59F3303F5EC731A6010BDF8
:1018D000284B1A6040F2444203F59F3303F5EA7344
:1018E0001A6010BD244B1A604FF4517203F5803317
:1018F00020331A6010BD214B1A604FF4517203F56A
:1019000080331C331A6010BD1D4B1A604FF45172A6
:10191000A3F5DB23A3F5F9631A6010BD194B1A6018
:101920004FF45172A3F5DB23A3F2CC731A6010BD00
:101930007F29D4BF002101212046FFF7B1FE0121FC
:101940002046FFF7DFFE10BD628CFF1F08900340AA
:1019500008800B400880034010800340188003403B
:1019600020800340288003403080034038800340BB
:10197000408003404880034010900340189003408B
:1019800010800B4018800B4072B60D4B1B680D4A3F
:1019900010680D4A126862B612F0806F02D0322BC6
:1019A00088BF0130C3F5BB33FF33084AA2FB0323D2
:1019B0004FF47A7202FB00F000EB9310704700BF07
:1019C00018E000E0D898FF1F04ED00E0ABAAAAAA37
:1019D00038B50546FFF7D8FF044625B938BD013DA7
:1019E0000AD004F57A74FFF7CFFF001BB0F57A7FB9
:1019F000F5D201F0A3F8F6E738BD00BF10B5274BCC
:101A00004FF400021A604FF080721A604FF00072BB
:101A10001A604FF080621A604FF000621A60002076
:101A20001F4B18604BF6FF710433196028231D4AC1
:101A300013600832136008321360083213600832F2
:101A400013600832136008321360083213600922F1
:101A5000154C226004F58054043420600434216065
:101A60000434236008342360143C226004F5FE240F
:101A7000043420600D4801600D490B6008310B6093
:101A80000C4B1A60FFF71AFC3220FFF7A1FF00F0A1
:101A90009DFC4FF4AF70FFF79BFF10BD08E100E025
:101AA000048003400C8003400080034008800B400A
:101AB0000C800B4000800B4010B40E4B1B7843F0A1
:101AC00002040D4A02EBC40250600C4A1278002A4C
:101AD00014BFC820882040EA0141074840F834106C
:101AE00082F0010205490A7083F00103014A137074
:101AF00010BC70476099FF1F0080FF1FF199FF1F06
:101B0000431E062B11D872B60B4A52F8230080B13F
:101B100010B4416842F82310084931F813200488B2
:101B2000121B21F8132062B601E00020704710BCA0
:101B3000704762B6704700BF4499FF1F2C9CFF1F7F
:101B4000013806280DD872B6074B53F820302BB158
:101B5000002001305B68002BFBD100E0002062B662
:101B600070470020704700BFA499FF1F38B572B6B8
:101B70001B4901231B4C11F8012B12F0080F24D034
:101B80009A0054F832506DB9164B03EBC20108307D
:101B90004860154943F83210144A1378013B13701A
:101BA00062B638BD42F0010254F832506DB90D4BA7
:101BB00003EBC201083048600D4943F832100B4A6C
:101BC0001378013B137062B638BD0133082BD2D1B4
:101BD00062B60022054B1A7000F06AFD38BD00BFE6
:101BE000E4A600000080FF1F88004000E699FF1F68
:101BF000C8004000431E062B39D810B4400140F005
:101C000010001B4A104472B61A4AD25C032A0BD841
:101C1000DFE802F01B040207052217E00830022269
:101C200014E00830042211E0134A52F823201AB9B4
:101C3000114A42F8231003E0104A52F82320516061
:101C40000E4A42F8231062B610E00322094CE25417
:101C500001F10803436000F00803002B14BFC82300
:101C600088230A8843EA0243036062B610BC7047C7
:101C70000080FF1FFC98FF1FA499FF1FC099FF1F42
:101C80002DE9F04F85B0AB4CDFF8F4A2DFF8F4B2E9
:101C90002578EDB215F0040F1DD0A74B1B7813F07B
:101CA000FF0F16D0A54B1A7802F0FF032AB1013BB3
:101CB000DBB2A24A137003B900BEA14B1A7802F03E
:101CC000FF0332B1013BDBB29D4A13700BB900F048
:101CD00049FE0423237015F0080F00F00A839AF8D8
:101CE0000030DBB21D0940F04282964E9D0806EBA3
:101CF000C5035A6856F83530C3F38303013B0C2BF8
:101D000000F23182DFE813F0DA01DA012F022F024C
:101D10002F022F022F022F0209022F022F022F0261
:101D20000D00894913680B6052684A60874A46F87B
:101D30003520002286490A6082490A618A610121B0
:101D4000844A11709BB240F28162934218D8B3F575
:101D5000D06F38D2B3F5817F00F0338106D8802B65
:101D600000F0E180822B00F0158175E140F2023233
:101D7000934200F03B81B3F5A06F00F071816BE1FD
:101D800040F62122934200F06B810CD8B3F5106F1E
:101D90001FD040F62112934200F08C81B3F5086FFA
:101DA00000F0BB8058E142F22122934200F04B81C7
:101DB00042F22132934200F0538142F221029342D7
:101DC00040F04A8176E1644B5D68002D40F023814C
:101DD00035E15D4B9A78584B1A705A4D05F1E00683
:101DE0002B6A13F0800F03D0686A083800F060FC9B
:101DF0000835B542F4D1594B0093DFF88C81584B2C
:101E00000193DFF8889100273E46009B02931868F3
:101E100028B1456800F04CFC2846002DF9D1029B02
:101E20001E6002974F4B43F82760CDF80C80D8F81E
:101E3000000028B1456800F03BFC2846002DF9D190
:101E4000039B1E60019B43F8046F0193464B029A6B
:101E500023F8126099F80030023B032B09D8DFE821
:101E600003F00205020589F8006002E0012389F809
:101E700000300137009B0433009308F1040809F196
:101E80000109072FC1D10022384B1A700125384FA4
:101E9000DFF8FC902B4E904619F8013B07F8043B05
:101EA00013F0080F2BD000F0E3FB034640B1AA006B
:101EB00006EB451108334B602E4946F8321006E018
:101EC000AB0046F83380294A13780133137000F0D1
:101ED000CFFB024650B1AB0043F0010306EBC30158
:101EE00008324A60194A46F8332008E0AB0043F054
:101EF000010346F833801D4A137801331370AB0099
:101F000043F0020246F8328043F0030346F8338080
:101F10000135194B9F42BFD12AE2074B1B78174D61
:101F20002B700123A1E0154D00232B706B70022351
:101F30009BE000BF80200740F099FF1F6199FF1FC1
:101F4000089AFF1F0080FF1FDC99FF1FC800400098
:101F5000DC98FF1FF199FF1FECA600004499FF1FBA
:101F6000BC99FF1FE098FF1F2C9CFF1FE699FF1FE5
:101F7000C420074088004000E0200740E899FF1F88
:101F80009020074094200740A499FF1FFC98FF1F52
:101F9000E4A60000A04B9B88072B03D90F229F4B80
:101FA0001A7087E09E4A0021117051709B4A12F806
:101FB000233013F0020F56D0994D01232B700223CA
:101FC00053E0954B9B8803F07F03072B02DC924A7A
:101FD00052881AB10F22914B1A706BE08F4911F899
:101FE000232022F0020201F82320C1E18A4B9B88C2
:101FF00003F07F03072B02DC874A52881AB10F22B5
:10200000864B1A7056E0854911F8232042F00202EF
:1020100001F82320ACE1804B59889888814B1A88BD
:102020008A4208D15A88824205D1090A03290CBF85
:102030002B781B8919E00C335D68002DEFD10F223E
:10204000764B1A7036E0784B1A68784B1A60724BF0
:102050009A78774B1A708BE10F22704B1A7029E037
:1020600000231D4601E002236D4D6B4AD6889E4237
:1020700028BF1E463746402E28BF402739462846EF
:10208000FFF71AFD3D44F61B03D13F2F00F2758187
:1020900010E03746402E28BF402739462846FFF734
:1020A0000BFD3D44F61B01D13F2F03D9614B1D6051
:1020B000614B1E8001238BF8003054E0564B198889
:1020C00042F22103994213D15C4BD71D12F8011B38
:1020D00003F8011FBA42F9D1594B1B68862B02D174
:1020E0000F22584B1A7000210846FFF7E5FC3A46CC
:1020F000494B1968544B99420BD1474B5968534B84
:10210000994206D11278524B1A7000210846FFF707
:10211000D3FC504B46F8353025E0464B1F68BFB125
:10212000DFF81481B8F800502E46402D28BF402615
:1021300031463846FFF7C0FCAD1BADB2A8F80050E1
:102140000DB9402E01D13E4400E00026394B1E60FF
:10215000314B1B88B3F5A06F05D12F4B00225A706D
:102160009B783D4A137001238BF80030BEE03B4E54
:102170009F0806EBC708D8F80420A2F10800013D2B
:10218000EDB213F0080F6FD000F092FA344B53F811
:1021900025304BB35968324A42F8251003F1080242
:1021A000C8F804202F4A525D032A12D8DFE802F053
:1021B00002060A0E03212B4A51550AE00221294A40
:1021C000515506E00521274A515502E00421254AD0
:1021D000515518F0080F14BFC82288221B8842EA04
:1021E000034346F8373081E01E4B5B5D032B0BD871
:1021F000DFE803F07C7C020600221A4B5A5575E09A
:102200000122184B5A5571E018F0080F14BF032231
:102210000222144B5A5569E0DC99FF1FC020074089
:10222000E899FF1FECA60000D898FF1F509CFF1FE5
:10223000189AFF1FDC98FF1FE499FF1F479CFF1FA0
:10224000489CFF1F6199FF1F210900020200010045
:10225000009AFF1FC8004000982007400080FF1F21
:10226000A499FF1FFC98FF1F56F837301B0C22F86B
:10227000083C9BB3002322F8063C42F8043C434B45
:1022800053F825301BB9414B43F8250003E0404B80
:1022900053F8253058603E4B43F825003D4931F84E
:1022A000150032F8083C034421F8153000F0E0F93D
:1022B000034658B10833C8F8043018F0080F364AFE
:1022C000364B08BF134646F837300FE0002346F878
:1022D0003730334A13780133137007E018F0080FD2
:1022E0002D4A2E4B08BF134646F83730082323707B
:1022F000CEE415F0010F21D02A4902230B700022F1
:10230000294B1A70294B24481860294C5C6098604E
:102310002848D8601A619A610D20274B1870FF2356
:10232000264803700838037018300270244A13706E
:102330009F22244B1A7001230B7023E015F0800FAD
:1023400005D00D221C4B1A708022403B1A7015F0EC
:10235000020F06D0194A1378DBB2137002221A4B0F
:102360001A7015F0100F0DD01022174B1A7009E0DB
:1023700000210846FFF7A0FB9CE600212846FFF756
:102380009BFB97E605B0BDE8F08F00BF4499FF1FA7
:10239000E098FF1F2C9CFF1F88004000C8004000F1
:1023A000E699FF1F942007406099FF1F0080FF1FE0
:1023B0000499FF1F6499FF1FC02007408820074031
:1023C0008C200740842007408020074008B501F09A
:1023D00017FF1C4800F1E801034600221A605A600A
:1023E00008338B42FAD1184A136843F480231360F0
:1023F000C0F30722154B1A70C0F3074214331A704A
:10240000000E04331870FF23114A13700832137042
:10241000783A137001238432137000216C321170EA
:102420007C3A137070220B4B1A704FF40072A3F2B7
:1024300041331A60102203F1C04303F5C8231A7018
:1024400008BD00BF0080FF1F348004409C2007406F
:102450008020074049E400E0F8B51D4B1B7813F0DD
:10246000FF0F2ED044F2D95406251A4E184F284695
:10247000FFF766FB022803D800F0FAF8034680B99C
:10248000013C01D033782BB10122124B1A704FF06E
:10249000FF30F8BD00F052FB3B7813F0FF0FE6D1A0
:1024A00012E000240B4A14700B4D07CD9860D960E0
:1024B0001A610C221A8019460620FFF79BFB204662
:1024C000F8BD4FF0FF30F8BD4FF0FF30F8BD00BF52
:1024D000F099FF1FF299FF1F3C9CFF1F1F2806D891
:1024E0000A280BD00B280CBF2B20002070477F2818
:1024F00006D8044B184410F8200C70472820704769
:102500000020704784A60000F8B51E4B1B7813F01E
:10251000FF0F30D047F2694401251B4E194F284662
:10252000FFF70EFB032803D800F0A2F8014680B99C
:10253000013C01D033782BB10122134B1A704FF0BC
:10254000FF30F8BD00F0FAFA3B7813F0FF0FE6D148
:1025500014E00E4B1B780372002444720C4B186875
:10256000C1F80A009B88CB8108230B800120FFF76C
:1025700041FB2046F8BD4FF0FF30F8BD4FF0FF3073
:10258000F8BD00BFF099FF1FFF99FF1FFE99FF1FC5
:10259000F899FF1F08B50B4B19700B4B18700022F0
:1025A0005A709A70DA701A715A71FFF7ADFF38B924
:1025B0000023044A1370044A1370FFF7A5FF08BDF7
:1025C00008BD00BFFE99FF1FF899FF1F08B5FFF770
:1025D00085FF50B100F04002D2B2002A0CBF0021AA
:1025E000022100F03F00FFF7D5FF08BD08B510F04D
:1025F000800F05D100221C4B1A60FFF7E7FF08BDD2
:10260000BF2819D800F03F00174B1B68012B08D1D9
:102610000022154B1A60154B1B881843FFF7D6FF95
:1026200008BD022B1FD1114A138843EA8010108085
:1026300001220D4B1A6008BDDF2808D8800100F484
:10264000F8600A4B18800122074B1A6008BDEF287A
:1026500006D80003054B18800222034B1A6008BD00
:10266000FF22014B1A6008BD049AFF1FF499FF1F57
:1026700072B60D4B1A68B2FA82F31D2B02D962B6FC
:10268000002070474FF00041D94022EA010206497C
:102690000A6062B6054903EBC303DB00C8180022D9
:1026A000CA504260704700BF648CFF1FBC83FF1F8D
:1026B00008B50F4BC31A0F4AA2FB03231B091D2B9E
:1026C00014D80D4A12783AB10C4A127812F0FF0F62
:1026D00002D0FFF74BFA08BD72B609494FF000422D
:1026E00022FA03F30A681A430A6062B608BD00BF03
:1026F000BC83FF1F398EE338E699FF1FF099FF1F57
:10270000648CFF1F10B5134B1B6853B9124B1B7819
:1027100013F0FF0F18D00320FFF7F2F90D4B1860EC
:10272000A8B10C4B186843885A1C03441C7A0388D0
:102730009A4206D3FFF7BCFF0022064B1A602046E0
:1027400010BD4280204610BD4FF0FF3010BD4FF04D
:10275000FF3010BD149AFF1FF099FF1F08B50D4BF5
:102760001B6883B90C4B1B7813F0FF0F08D00320B4
:10277000FFF7C6F9074B186028B94FF0FF3008BDC6
:102780004FF0FF3008BD034B1A6853881344187A82
:1027900008BD00BF149AFF1FF099FF1F044B9888D3
:1027A000044B1B681BB11A885B88D31A1844704706
:1027B0002C9CFF1F149AFF1F0B4B1B7813F0FF0F6D
:1027C00011D010B5094B186820B1FFF771FF002236
:1027D000064B1A6003242046FFF792F910B1FFF769
:1027E00067FFF8E710BD7047F099FF1F149AFF1FAD
:1027F0002DE9F84F0122374B1A708A46002963D021
:1028000004460D46344FDFF8DC809946334E3B6872
:1028100083BB98F8003013F0FF0F06D100222D4B38
:102820001A704FF0FF30BDE8F88F4AF2F92B042000
:10283000FFF786F9072809D8012389F80030FFF748
:1028400017FF3860B0B9002389F80030BBF1010BE5
:1028500001D0337833B10122204B1A704FF0FF3092
:10286000BDE8F88F00F06AF998F8003013F0FF0F18
:10287000DDD1D3E70023337039684A88C2F14000C4
:10288000A84228BF284601F1080302EB000EA1F878
:1028900002E02D1A48B1013A1344204414F8012BE8
:1028A00003F8012FA042F9D104464B883F2B06D9EB
:1028B00040230B800420FFF79DF900233B60052295
:1028C000074B1A70002DA2D10022024B1A705046FD
:1028D000BDE8F88F099AFF1F0C9AFF1F109AFF1F7F
:1028E000089AFF1FF099FF1F00B583B002AB03F8F1
:1028F000010D01211846FFF77BFF03B05DF804FBD3
:10290000144B1B7813F0FF0F23D010B50122124B8C
:102910001A70124B196851B10024114B1C704B886E
:102920000B800420FFF766F90C4B1C600DE0FFF7ED
:102930009FFE014630B10022094B1A700420FFF7B8
:1029400059F902E00122064B1A700022024B1A705C
:1029500010BD7047F099FF1F099AFF1F0C9AFF1FC7
:10296000089AFF1F08B50E4B1B7813F0FF0F16D106
:102970000C4B196841B14B880B800420FFF73AF9E2
:102980000022084B1A6008BDFFF772FE014618B11D
:102990000420FFF72FF908BD0122034B1A7008BD70
:1029A000099AFF1F0C9AFF1F089AFF1FF8B56AB11A
:1029B00006460F461446002533681B6817F8011BAE
:1029C000304698470544013CF6D100E000252846F2
:1029D000F8BD00BF00B583B0054B1B88ADF80430CF
:1029E00003685B68022201A9984703B05DF804FB05
:1029F0004CA6000010B5144603685B689847204653
:102A000010BD00BF0EB400B582B003AA52F8041B7B
:102A1000019203F013FE02B05DF804EB03B07047BF
:102A2000F0B58BB022B903681B68C9B2984731E092
:102A30001646012A14BF16460A2621B930228DF8FF
:102A40002520212417E021243746B1FBF6F206FBAE
:102A50001212D2B22546092A94BF30323732D2B28E
:102A60000DF1280E754405F8242CB1FBF7F111B1D6
:102A7000013CE4B2E9E733B1013CE4B20AAB2344E0
:102A80002D2203F8242C03685B68C4F1220201A9FB
:102A9000214498470BB0F0BD08B50029BABF4942A0
:102AA0002D2300230A22FFF7BBFF08BD816070477A
:102AB00008B5FDF7B1FDFDF72DFE00F03FF8FAE790
:102AC00008B5FFF779FE08BD08B5FFF719FF08BD87
:102AD00008B5FFF743FE08BD08B5FFF713FE08BDB4
:102AE00008B5FFF75BFE08BD08B508461146FFF7BD
:102AF0007FFE08BD08B50846FFF7F6FE08BD00BF1B
:102B000008B50846FFF772FD012008BD704700BFF9
:102B1000064B00221A714FF47A7199601A730449B6
:102B20001960044B1A71044A1A607047249AFF1FF7
:102B300058A600001C9AFF1F7CA6000008B50F4B8A
:102B40001B78CBB901220D4B1A70FFF727FE08B195
:102B5000FFF7DCFF00F0E2FB08B101F029FC00F018
:102B600091FF08B101F0C6FC01F062FA08B101F072
:102B700063FD0022014B1A7008BD00BF349AFF1F8D
:102B8000844641EA000313F003036DD1403A41D378
:102B900051F8043B40F8043B51F8043B40F8043B37
:102BA00051F8043B40F8043B51F8043B40F8043B27
:102BB00051F8043B40F8043B51F8043B40F8043B17
:102BC00051F8043B40F8043B51F8043B40F8043B07
:102BD00051F8043B40F8043B51F8043B40F8043BF7
:102BE00051F8043B40F8043B51F8043B40F8043BE7
:102BF00051F8043B40F8043B51F8043B40F8043BD7
:102C000051F8043B40F8043B51F8043B40F8043BC6
:102C1000403ABDD2303211D351F8043B40F8043B66
:102C200051F8043B40F8043B51F8043B40F8043BA6
:102C300051F8043B40F8043B103AEDD20C3205D376
:102C400051F8043B40F8043B043AF9D2043208D06E
:102C5000D2071CBF11F8013B00F8013B01D30B88E0
:102C600003806046704700BF082A13D38B078DD0BE
:102C700010F003038AD0C3F10403D21ADB071CBF90
:102C800011F8013B00F8013B80D331F8023B20F8FA
:102C9000023B7BE7043AD9D3013A11F8013B00F833
:102CA000013BF9D20B7803704B7843708B788370BB
:102CB00060467047024A136801331360704700BFD3
:102CC000D898FF1F08B50D4C236813F4802F01D04E
:102CD000FEF7D6FF236813F4806F01D000F0A8FB45
:102CE000236813F4006F01D000F056FF236813F43B
:102CF000805FE9D001F012FAE6E700BF34800440BB
:102D000008B5FFF7DFFF00BF1022014B1A807047A4
:102D100000200540704700BF08B50B4B1B6880B111
:102D20006A461818A2F58052904206D302F0F0FBD2
:102D30000C2303604FF0FF3008BD034A10601846B3
:102D400008BD184608BD00BF688CFF1FEFF3138352
:102D5000ABB9EFF31083ABB9EFF3058323B10F2BBE
:102D600005D9094A985C03E04FF4807000E0002028
:102D7000EFF311833BB1984228BF184670474FF0DC
:102D8000FF30704700207047F0E300E0F0B44D1EC4
:102D90002E460024B0FBF2F302FB13032746092B57
:102DA00094BF30333733DBB206F8013FB0FBF2F0AB
:102DB00008B10134EEE70B1900225A7094420BDD82
:102DC0001A46002315F8010F14782C7002F8010937
:102DD0000133F81A8342F5DB0846F0BC704700BFA8
:102DE000254A136843F4806313600023234A137059
:102DF000234A1370234A1370234A1370234A137013
:102E0000234B1B7813B1152B05D008E040F2133289
:102E1000204B1A6003E040F213321F4B1A601F4B25
:102E20001B78012B02D0052B05D008E04FF451721E
:102E30001B4B1A6003E04FF451721A4B1A60C0F337
:102E40004432194B1A70C0F347125A7000F01F0039
:102E5000987204229A700221D9745A7588221A74C1
:102E60003C22DA704022114B1A704FF40052A3F248
:102E700029331A60704700BF34800440C49AFF1F92
:102E80003D9AFF1FCC9AFF1FC59AFF1F3C9AFF1F58
:102E9000809AFF1F40A0044018C004406C8CFF1FA4
:102EA00044A004401CC0044000A006402DE400E003
:102EB000154B9B7803F0EC0200F00303134310F072
:102EC000040F18BF43F010030F4A937000F00F0374
:102ED000042B03D1937943F0400393710A4B5B7940
:102EE00003F0EF0310F0100F18BF43F01003064A71
:102EF0005371937903F0EF0310F0200F18BF43F0E4
:102F00001003014A9371704700A00640224B1B68D2
:102F100013F4806F3FD010B5204B1B7813F0FF0FD8
:102F200006D01E4CFFF70AFE237813F0FF0FF9D1ED
:102F30004FF400521A4B1A6000221A4BDA701A4BE7
:102F40001B7813B1152B05D008E040F20312174B84
:102F50001A6003E040F20312154B1A60154B1B7800
:102F600003F07F03012B02D0052B05D008E040F2CF
:102F70000312114B1A6003E040F203120F4B1A6068
:102F800000230F4A13700F4A13700F4B1B680BB1CD
:102F900001221A7010BD7047348004403C9AFF1F14
:102FA00084E100E000A00640809AFF1F40A004409A
:102FB00018C004406C8CFF1F44A004401CC0044097
:102FC000C49AFF1F3D9AFF1F389AFF1F10B5044691
:102FD000094A137813F0FF0FFBD101212046FEF7B9
:102FE00091FB00212046FEF75BFB044B53F8342095
:102FF000034B1A6010BD00BF3C9AFF1F3CA50000A8
:10300000C89AFF1F10B40C4609B140F08000174B5E
:103010001B78984228D0164A126812F4806F21D08B
:1030200003F07F03012B02D0052B04D006E0002221
:10303000104B1A6002E000220F4B1A60002C14BFE4
:103040006023442300F07F02012A02D0052A05D024
:1030500008E043F44073074A136003E043F440730D
:10306000054A1360014B187010BC70476C8CFF1F31
:103070003480044044A004401CC00440114B1B7821
:1030800083421ED0104A126812F4806F17D013B119
:10309000152B04D006E000220C4B1A6002E000223F
:1030A0000B4B1A6010B1152805D008E040F213321E
:1030B000064B1A6003E040F21332054B1A60014BD5
:1030C00018707047809AFF1F3480044040A004406D
:1030D00018C004400D4B1B6813F4806F13D02128D7
:1030E0000DD810B50A4C0B4B53F83030236001213A
:1030F000FEF708FB236800221A70012010BD002093
:10310000034B186070470020704700BF34800440B4
:10311000389AFF1F3CA50000114B1B6813F4806F09
:103120001BD0122804D140F202320E4B1A600DE07F
:10313000142804D140F202320B4B1A6006E00B4A0D
:10314000537B03F0FE03537300207047074A537B01
:1031500043F001035373012070470020704700BF04
:10316000348004400CA0044014C0044000A0064079
:10317000214B1B6813F4806F3CD02DE9F0411F4BAD
:103180001B680BB101221A7007461D4B1C780134D5
:10319000402C28BF00241B4D1B4EDFF8708017E029
:1031A000FFF7D4FD40280FDC337913F0800F0FD0E8
:1031B0002B780133402B28BF002318F80320D2B20C
:1031C000F271DBB22B7003E0FF2801DDFFF7B6FCE4
:1031D0002B78DBB29C42E3D0FFB20C4B1F5501228F
:1031E0000B4B1A70E4B2064B1C70BC22064BDA7013
:1031F000BDE8F081704700BF34800440C89AFF1FCB
:10320000CC9AFF1FC59AFF1F00A00640409AFF1FDF
:103210003C9AFF1F284B1B6813F4806F4AD02DE99E
:10322000F0470646254B1B680BB101221A7006EBCE
:10323000010A564539D2DFF89480214D214FDFF83D
:10324000909098F800400134402C28BF00242B783F
:10325000DBB29C421DD1BC23FB70FFF777FD4028F9
:103260000FDC3B7913F0800F0FD02B780133402B0C
:1032700028BF002319F80320D2B2FA71DBB22B70F9
:1032800003E0FF2801DDFFF759FC2B78DBB29C42FD
:10329000E3D016F8013B09F8043001220A4B1A70FA
:1032A000E4B288F80040B245CBD1BC22054BDA70BD
:1032B000BDE8F087704700BF34800440C89AFF1F04
:1032C000C59AFF1F00A006403C9AFF1FCC9AFF1F23
:1032D000409AFF1F074B1B7813F0FF0F08D010B563
:1032E000044CFFF72BFC237813F0FF0FF9D110BD2E
:1032F000704700BF3C9AFF1F064B1B78DBB2064AA3
:103300001078C0B283422CBF3F3000F1FF30C01AAA
:10331000704700BFCC9AFF1FC59AFF1F054B187856
:10332000C0B2054B1B78DBB2984238BF4030C01AA0
:10333000704700BFC49AFF1F3D9AFF1F10B4184B7F
:103340001B78DAB2174B1B78DBB29A4217D00133E5
:103350003F2B17D81449C85CC0B2D9B2114C2170A8
:1033600012490968C9B19A4202D3FFE7D31A01E0B2
:103370004032D31A1A2B10DC00230B700DE04FF0F3
:10338000FF300AE0084B1878C0B20021054B1970D5
:10339000064B196800230029E8D110BC704700BF14
:1033A000C49AFF1F3D9AFF1F849AFF1F389AFF1F80
:1033B000094B1A78D2B2094B1B78DBB29A4207D07C
:1033C0000133402B28BF0023054AD05CC0B27047B0
:1033D0004FF0FF30704700BFC49AFF1F3D9AFF1F98
:1033E000849AFF1F0D4B1B6813F4806F14D00C4B95
:1033F000DA7802F0CB02DA7040225A74DA7842F0BE
:103400003402DA70074B1B78DBB2074A1370074BA4
:103410001B680BB100221A70704700BF3480044053
:1034200000A006403D9AFF1FC49AFF1F389AFF1F55
:1034300070B43E4B1B7913F0300F32D072B63B4B59
:103440009B7D03F0FF022BB9384BDA7940225A7486
:1034500062B626E062B6364B1878C0B2354B1C789F
:10346000E4B2324D344EEB79D9B2431C402B28BF25
:103470000023A3421CBFF1541846531E13F0FF0251
:10348000F1D1C3B22A4A13702C4B1B684BB1A04236
:103490002EBF001BC4F1400400192728C4BF01221D
:1034A0001A70224BDA78D2B212F0800F29D01B7931
:1034B00013F0800F25D0224B1C78E4B2214B1B78EF
:1034C000DBB29C4212D019481F4D01E0A3420CD040
:1034D0000133402B28BF00230179E95CC9B2C171D7
:1034E000017DC9B20729F1D900E02346DBB21549B5
:1034F0000B700E4B1B7913F0800F02D07C210B4B0D
:10350000D97012F0400F0ED0084B1B7913F0400F0A
:1035100009D000220D4B1A700D4B1B6803B11A70B5
:103520003C22024BDA7070BC704700BF00A006401E
:10353000C49AFF1F3D9AFF1F849AFF1F389AFF1FEE
:10354000CC9AFF1FC59AFF1F409AFF1F3C9AFF1F8E
:10355000C89AFF1F254A136843F4006313600023D1
:10356000234A1370234A1370234A1370234A13709B
:10357000234A1370234B1B78092B02D01A2B05D03A
:1035800008E040F21332204B1A6003E040F213329D
:103590001E4B1A601E4B1B780A2B02D01F2B05D026
:1035A00008E04FF451721B4B1A6003E04FF4517264
:1035B000194B1A60C0F34432184B1A70C0F347120B
:1035C0005A7000F01F00987204229A700221D97478
:1035D0005A7588221A743C22DA704022104B1A70F5
:1035E0004FF40042A3F22B331A607047348004403A
:1035F000409BFF1FD59AFF1F489BFF1F419BFF1F4A
:10360000D49AFF1F6D8CFF1F0CB0044004D00440FF
:103610006E8CFF1F10B0044000D0044000B0064084
:103620002FE400E0154B9B7803F0EC0200F003035D
:10363000134310F0040F18BF43F010030F4A9370A8
:1036400000F00F03042B03D1937943F040039371EF
:103650000A4B5B7903F0EF0310F0100F18BF43F033
:103660001003064A5371937903F0EF0310F0200F13
:1036700018BF43F01003014A9371704700B0064031
:10368000234B1B6813F4006F40D010B5214B1B78FF
:1036900013F0FF0F06D01F4CFFF750FA237813F0FA
:1036A000FF0FF9D14FF400421B4B1A6000221B4B55
:1036B000DA701B4B1B78092B02D01A2B05D008E0BF
:1036C00040F20312174B1A6003E040F20312164B4C
:1036D0001A60164B1B7803F07F030A2B02D01F2BB6
:1036E00005D008E040F20312114B1A6003E040F2EB
:1036F0000312104B1A6000230F4A13700F4A137005
:103700000F4B1B680BB101221A7010BD704700BF30
:1037100034800440D49AFF1F84E100E000B00640EA
:103720006D8CFF1F0CB0044004D004406E8CFF1F52
:1037300010B0044000D00440409BFF1FD59AFF1FEB
:10374000D09AFF1F10B50446094A137813F0FF0FF3
:10375000FBD101212046FDF7D5FF00212046FDF7D2
:103760009FFF044B53F83420034B1A6010BD00BF79
:10377000D49AFF1F3CA50000449BFF1F10B40C46C9
:1037800009B140F08000174B1B78984228D0164AA8
:10379000126812F4006F21D003F07F030A2B02D0CD
:1037A0001F2B04D006E00022104B1A6002E000221A
:1037B0000F4B1A60002C14BF6023442300F07F02DB
:1037C0000A2A02D01F2A05D008E043F44073074AB2
:1037D000136003E043F44073054A1360014B187013
:1037E00010BC70476E8CFF1F3480044010B0044042
:1037F00000D00440124B1B78834220D0114A12683B
:1038000012F4006F19D0092B02D01A2B04D006E055
:1038100000220D4B1A6002E000220C4B1A600928AE
:1038200002D01A2805D008E040F21332064B1A6085
:1038300003E040F21332054B1A60014B18707047D9
:103840006D8CFF1F348004400CB0044004D0044051
:103850000D4B1B6813F4006F13D021280DD810B541
:103860000A4C0B4B53F8303023600121FDF74AFF1F
:10387000236800221A70012010BD0020034B18603D
:1038800070470020704700BF34800440D09AFF1F6B
:103890003CA500000D4B1B6813F4006F13D01728D4
:1038A0000AD140F202320A4B1A600A4A537B43F0B3
:1038B0000103537301207047064A537B03F0FE0354
:1038C0005373002070470020704700BF34800440CD
:1038D00008B0044000B00640214B1B6813F4006F91
:1038E0003CD02DE9F0411F4B1B680BB101221A702F
:1038F00007461D4B1C780134282C28BF00241B4D83
:103900001B4EDFF8708017E0FFF720FA40280FDC2D
:10391000337913F0800F0FD02B780133282B28BF79
:10392000002318F80320D2B2F271DBB22B7003E04F
:10393000FF2801DDFFF702F92B78DBB29C42E3D0D0
:10394000FFB20C4B1F5501220B4B1A70E4B2064B11
:103950001C70BC22064BDA70BDE8F081704700BFD6
:1039600034800440449BFF1F489BFF1F419BFF1F67
:1039700000B00640D89AFF1FD49AFF1F284B1B683F
:1039800013F4006F4AD02DE9F0470646254B1B681B
:103990000BB101221A7006EB010A564539D2DFF845
:1039A0009480214D214FDFF8909098F80040013429
:1039B000282C28BF00242B78DBB29C421DD1BC23CD
:1039C000FB70FFF7C3F940280FDC3B7913F0800F41
:1039D0000FD02B780133282B28BF002319F80320A0
:1039E000D2B2FA71DBB22B7003E0FF2801DDFFF7E2
:1039F000A5F82B78DBB29C42E3D016F8013B09F81E
:103A0000043001220A4B1A70E4B288F80040B24533
:103A1000CBD1BC22054BDA70BDE8F087704700BF00
:103A200034800440449BFF1F419BFF1F00B00640B1
:103A3000D49AFF1F489BFF1FD89AFF1F074B1B7884
:103A400013F0FF0F08D010B5044CFFF777F8237878
:103A500013F0FF0FF9D110BD704700BFD49AFF1FBC
:103A6000064B1B78DBB2064A1078C0B283422CBFEB
:103A7000273000F1FF30C01A704700BF489BFF1F7E
:103A8000419BFF1F054B1878C0B2054B1B78DBB27A
:103A9000984238BF4030C01A704700BF409BFF1F9C
:103AA000D59AFF1F10B4184B1B78DAB2174B1B784E
:103AB000DBB29A4217D001333F2B17D81449C85CA8
:103AC000C0B2D9B2114C217012490968C9B19A42E9
:103AD00002D3FFE7D31A01E04032D31A1A2B10DCCD
:103AE00000230B700DE04FF0FF300AE0084B187810
:103AF000C0B20021054B1970064B1968002300293C
:103B0000E8D110BC704700BF409BFF1FD59AFF1F34
:103B1000009BFF1FD09AFF1F094B1A78D2B2094BA6
:103B20001B78DBB29A4207D00133402B28BF002319
:103B3000054AD05CC0B270474FF0FF30704700BFFD
:103B4000409BFF1FD59AFF1F009BFF1F0D4B1B685B
:103B500013F4006F14D00C4BDA7802F0CB02DA7059
:103B600040225A74DA7842F03402DA70074B1B783C
:103B7000DBB2074A1370074B1B680BB100221A70A7
:103B8000704700BF3480044000B00640D59AFF1F44
:103B9000409BFF1FD09AFF1F70B43E4B1B7913F060
:103BA000300F32D072B63B4B9B7D03F0FF022BB936
:103BB000384BDA7940225A7462B626E062B6364B48
:103BC0001878C0B2354B1C78E4B2324D344EEB79E4
:103BD000D9B2431C402B28BF0023A3421CBFF15481
:103BE0001846531E13F0FF02F1D1C3B22A4A1370D4
:103BF0002C4B1B684BB1A0422EBF001BC4F14004EC
:103C000000192728C4BF01221A70224BDA78D2B2D9
:103C100012F0800F29D01B7913F0800F25D0224B92
:103C20001C78E4B2214B1B78DBB29C4212D01948BD
:103C30001F4D01E0A3420CD00133282B28BF0023E5
:103C40000179E95CC9B2C171017DC9B20729F1D915
:103C500000E02346DBB215490B700E4B1B7913F0C5
:103C6000800F02D07C210B4BD97012F0400F0ED088
:103C7000084B1B7913F0400F09D000220D4B1A702E
:103C80000D4B1B6803B11A703C22024BDA7070BCFA
:103C9000704700BF00B00640409BFF1FD59AFF1F32
:103CA000009BFF1FD09AFF1F489BFF1F419BFF1FD8
:103CB000D89AFF1FD49AFF1F449BFF1F174A13680F
:103CC00043F4805313600023154A1370154A137090
:103CD000154A1370154A1370154A137040F21331C8
:103CE000144A11604FF4517104321160C0F3443131
:103CF000114A1170C0F34711517000F01F0090720B
:103D0000937013742C23D37040220C4B1A704FF411
:103D10000032A3F22D331A60704700BF3480044094
:103D2000BC9BFF1F519BFF1FC49BFF1FBD9BFF1F21
:103D3000509BFF1F08C0044000C0064031E400E073
:103D4000154B9B7803F0EC0200F00303134310F0D3
:103D5000040F18BF43F010030F4A937000F00F03D5
:103D6000042B03D1937943F0400393710A4B5B79A1
:103D700003F0EF0310F0100F18BF43F01003064AD2
:103D80005371937903F0EF0310F0200F18BF43F045
:103D90001003014A9371704700C00640144B1B6822
:103DA00013F4805F23D010B5124B1B7813F0FF0F74
:103DB00006D0104CFEF7C2FE237813F0FF0FF9D1A6
:103DC0004FF400320C4B1A6000230C4AD37040F2BF
:103DD00003120B490A6004310A600A4A13700A4A46
:103DE00013700A4B1B680BB101221A7010BD70478B
:103DF00034800440509BFF1F84E100E000C0064077
:103E000008C00440BC9BFF1F519BFF1F4C9BFF1F22
:103E100010B50446094A137813F0FF0FFBD10121B6
:103E20002046FDF76FFC00212046FDF739FC044BCE
:103E300053F83420034B1A6010BD00BF509BFF1F86
:103E40003CA50000C09BFF1F10B40C4609B140F018
:103E50008000104B1B78984219D00F4A126812F458
:103E6000805F12D003F07F03082B02D100220B4B9E
:103E70001A60002C14BF6023442300F07F02082A3C
:103E800003D143F44073054A1360024B187010BC11
:103E9000704700BF6F8CFF1F348004400CC004408B
:103EA000704700BF0D4B1B6813F4805F13D02128AF
:103EB0000DD810B50A4C0B4B53F83030236001215C
:103EC000FDF720FC236800221A70012010BD00209D
:103ED000034B186070470020704700BF34800440D7
:103EE0004C9BFF1F3CA500000D4B1B6813F4805F2B
:103EF00013D00E280AD140F202320A4B1A600A4A45
:103F0000537B43F00103537301207047064A537BF0
:103F100003F0FE035373002070470020704700BF7A
:103F20003480044004C0044000C00640214B1B689C
:103F300013F4805F3CD02DE9F0411F4B1B680BB19F
:103F400001221A7007461D4B1C780134282C28BF0B
:103F500000241B4D1B4EDFF8708017E0FEF7F6FEC5
:103F600040280FDC337913F0800F0FD02B7801330A
:103F7000282B28BF002318F80320D2B2F271DBB23D
:103F80002B7003E0FF2801DDFEF7D8FD2B78DBB2B4
:103F90009C42E3D0FFB20C4B1F5501220B4B1A7011
:103FA000E4B2064B1C70AC22064BDA70BDE8F0811F
:103FB000704700BF34800440C09BFF1FC49BFF1F9D
:103FC000BD9BFF1F00C00640549BFF1F509BFF1F5F
:103FD00038B505460C4629B115F8010BFFF7A6FFC9
:103FE000013CF9D138BD00BF074B1B7813F0FF0F20
:103FF00008D010B5044CFEF7A1FD237813F0FF0F95
:10400000F9D110BD704700BF509BFF1F064B1B78B6
:10401000DBB2064A1078C0B283422CBF273000F1D1
:10402000FF30C01A704700BFC49BFF1FBD9BFF1F1E
:10403000054B1878C0B2054B1B78DBB2984238BFED
:104040004030C01A704700BFBC9BFF1F519BFF1F31
:1040500010B4184B1B78DAB2174B1B78DBB29A42BC
:1040600017D001333F2B17D81449C85CC0B2D9B25E
:10407000114C217012490968C9B19A4202D3FFE775
:10408000D31A01E04032D31A1A2B10DC00230B7034
:104090000DE04FF0FF300AE0084B1878C0B2002165
:1040A000054B1970064B196800230029E8D110BC94
:1040B000704700BFBC9BFF1F519BFF1F7C9BFF1FD6
:1040C0004C9BFF1F094B1A78D2B2094B1B78DBB20D
:1040D0009A4207D00133402B28BF0023054AD05C09
:1040E000C0B270474FF0FF30704700BFBC9BFF1F4E
:1040F000519BFF1F7C9BFF1F054B1B78DBB2054AC2
:104100001370054B1B680BB100221A70704700BF7B
:10411000519BFF1FBC9BFF1F4C9BFF1F2E4B1B790E
:1041200013F0200F22D02C4BDB79D9B22B4B1B780C
:104130000133402B28BF0023294A1278D2B2934280
:1041400004D0284AD154DAB224490A70264A1168A8
:1041500061B1264A1278D2B293422EBF9B1AC2F1A5
:1041600040029B18272BC4BF01230B701A4BDB782E
:10417000DBB213F0800F1CD0174A127912F0800FB7
:1041800017D01B4A1178C9B2184A1278D2B291429C
:1041900003D16C21104AD1700BE00132282A28BFCC
:1041A00000221449895CC9B20B48C171D2B20F49CF
:1041B0000A7013F0400F0ED0074B1B7913F0400F1D
:1041C00009D000220C4B1A700C4B1B6803B11A70FB
:1041D0002C22014BDA70704700C00640BC9BFF1FC9
:1041E000519BFF1F7C9BFF1F4C9BFF1FBD9BFF1F15
:1041F000C49BFF1F549BFF1F509BFF1FC09BFF1FB3
:1042000072B61D4B70221A7041211C4A11700F2189
:10421000013A117080221A701A46137813F0800F39
:10422000FBD000B585B0164B186862B6154B9842A6
:104230009CBF00EB800040000A2201A9FEF7A6FD0A
:104240009DF804307BB908E010F8012F32B121F855
:10425000022F01330A2BF7D100E0002301335B006A
:10426000094A137005E0084921F8023F01A801231B
:10427000EAE705B05DF804FB0000024007000240D9
:10428000080002407F969800648EFF1F08B50368FF
:104290001B68C9B2984708BD08B503681B68C9B256
:1042A000984708BD08B503681B68C9B2984708BDA0
:1042B00008B503681B68C9B2984708BD08B5084629
:1042C000FEF756FF012008BD08B50846FEF750FF6F
:1042D000012008BD38B50D46084602F051F80446E5
:1042E00001462846FEF796FF204638BD10B5084621
:1042F00014461146FEF78EFF204610BD08B5FEF7A6
:10430000FBFF08BD08B5FFF76DF808BD08B5084606
:10431000FEF702FF003018BF012008BD08B50846AF
:10432000FEF7D8FE003018BF012008BD08B50846CA
:104330001146FEF767FE08BD08B50846FEF79EFE6B
:1043400008BD00BF08B50846FEF740FE08BD00BF27
:1043500008B5FEF7DBFD08BD08B54B0803F1376073
:1043600000F5D830B0FBF1F0FEF73AFD08BD00BF14
:1043700010B514464B0803F1376000F5D830B0FB98
:10438000F1F0FEF72DFD2046FEF792FD10BD00BFB7
:1043900008B5FEF79FFF08BD08B5FFF709F808BD8F
:1043A00008B5FEF7CBFF08BD08B5FEF7B7FF08BD9F
:1043B000704700BF044B00221A714FF47A71996064
:1043C0001A73024A1A607047C89BFF1FA8A7000013
:1043D00008B503681B68C9B2984708BD08B50368EB
:1043E0001B68C9B2984708BD08B503681B68C9B205
:1043F000984708BD08B503681B68C9B2984708BD4F
:1044000008B50846FFF768FA012008BD08B5084658
:10441000FFF762FA012008BD38B50D46084601F0E5
:10442000AFFF044601462846FFF7A8FA204638BDEC
:1044300010B5084614461146FFF7A0FA204610BDF5
:1044400008B5FFF70DFB08BD08B5FFF77FFB08BDFA
:1044500008B50846FFF71EFA003018BF012008BD56
:1044600008B50846FFF7F4F9003018BF012008BD71
:1044700008B508461146FFF781F908BD08B508469A
:10448000FFF7B8F908BD00BF08B50846FFF75AF9AD
:1044900008BD00BF08B5FFF7F3F808BD08B54B0825
:1044A00003F1376000F5D830B0FBF1F0FFF752F8B8
:1044B00008BD00BF10B514464B0803F1376000F586
:1044C000D830B0FBF1F0FFF745F82046FFF7AAF827
:1044D00010BD00BF08B5FFF7B1FA08BD08B5FFF77A
:1044E0001BFB08BD08B5FFF7DDFA08BD08B5FFF7EF
:1044F000C9FA08BD704700BF044B00221A714FF47F
:104500007A7199601A73024A1A607047D89BFF1F2C
:1045100008A8000008B503681B68C9B2984708BD21
:1045200008B503681B68C9B2984708BD08B5036899
:104530001B68C9B2984708BD08B503681B68C9B2B3
:10454000984708BD08B50846FFF7F0FC012008BDF4
:1045500008B50846FFF7EAFC012008BD38B50D464E
:10456000084601F00DFF044601462846FFF730FDDE
:10457000204638BD10B5084614461146FFF728FD01
:10458000204610BD08B5FFF741FD08BD08B5FFF78F
:10459000B3FD08BD08B50846FFF7A6FC003018BFFC
:1045A000012008BD08B50846FFF77CFC003018BFA5
:1045B000012008BD08B508461146FFF745FC08BDB7
:1045C00008B50846FFF76CFC08BD00BF08B50846F3
:1045D000FFF71EFC08BD00BF08B5FFF7DFFB08BDF5
:1045E00008B54B0803F1B76000F55840B0FBF1F097
:1045F000FFF764FB08BD00BF10B514464B0803F17C
:10460000B76000F55840B0FBF1F0FFF757FB2046CC
:10461000FFF796FB10BD00BF08B5FFF7E5FC08BD2E
:1046200008B5FFF74FFD08BD08B5FFF711FD08BD40
:1046300008B5FFF7FDFC08BD704700BF044B002222
:104640001A714FF47A7199601A73024A1A607047AE
:10465000E89BFF1F68A8000081F0004102E000BF56
:1046600083F0004330B54FEA41044FEA430594EA32
:10467000050F08BF90EA020F1FBF54EA000C55EA6D
:10468000020C7FEA645C7FEA655C00F0E2804FEA3E
:104690005454D4EB5555B8BF6D420CDD2C4480EA20
:1046A000020281EA030382EA000083EA010180EA50
:1046B000020281EA0303362D88BF30BD11F0004F9E
:1046C0004FEA01314FF4801C4CEA113102D04042D4
:1046D00061EB410113F0004F4FEA03334CEA13330F
:1046E00002D0524263EB430394EA050F00F0A78027
:1046F000A4F10104D5F1200E0DDB02FA0EFC22FA22
:1047000005F2801841F1000103FA0EF2801843FA15
:1047100005F359410EE0A5F120050EF1200E012A06
:1047200003FA0EFC28BF4CF0020C43FA05F3C01844
:1047300051EBE37101F0004507D54FF0000EDCF1BD
:10474000000C7EEB00006EEB0101B1F5801F1BD366
:10475000B1F5001F0CD349085FEA30004FEA3C0C6A
:1047600004F101044FEA445212F5800F80F09A8060
:10477000BCF1004F08BF5FEA500C50F1000041EB64
:10478000045141EA050130BD5FEA4C0C404141EB68
:10479000010111F4801FA4F10104E9D191F0000F8F
:1047A00004BF01460020B1FA81F308BF2033A3F112
:1047B0000B03B3F120020CDA0C3208DD02F1140C09
:1047C000C2F10C0201FA0CF021FA02F10CE002F144
:1047D0001402D8BFC2F1200C01FA02F120FA0CFC3D
:1047E000DCBF41EA0C019040E41AA2BF01EB045186
:1047F000294330BD6FEA04041F3C1CDA0C340EDC84
:1048000004F11404C4F1200220FA04F001FA02F3C6
:1048100040EA030021FA04F345EA030130BDC4F184
:104820000C04C4F1200220FA02F001FA04F340EA79
:104830000300294630BD21FA04F0294630BD94F02A
:10484000000F83F4801306BF81F480110134013D11
:104850004EE77FEA645C18BF7FEA655C29D094EA82
:10486000050F08BF90EA020F05D054EA000C04BF00
:104870001946104630BD91EA030F1EBF00210020EB
:1048800030BD5FEA545C05D14000494128BF41F08A
:10489000004130BD14F580043CBF01F5801130BDEE
:1048A00001F0004545F0FE4141F470014FF0000079
:1048B00030BD7FEA645C1ABF194610467FEA655C2A
:1048C0001CBF0B46024650EA013406BF52EA0335CC
:1048D00091EA030F41F4002130BD00BF90F0000FBA
:1048E00004BF0021704730B54FF4806404F13204F6
:1048F0004FF000054FF0000150E700BF90F0000FAF
:1049000004BF0021704730B54FF4806404F13204D5
:1049100010F0004548BF40424FF000013EE700BFA5
:1049200042004FEAE2014FEA31014FEA02701FBF35
:1049300012F07F4393F07F4F81F06051704792F007
:10494000000F14BF93F07F4F704730B54FF4607481
:1049500001F0004521F0004120E700BF50EA0102CC
:1049600008BF704730B54FF000050AE050EA010279
:1049700008BF704730B511F0004502D5404261EBE9
:1049800041014FF4806404F132045FEA915C3FF42A
:10499000DCAE4FF003025FEADC0C18BF03325FEAC3
:1049A000DC0C18BF033202EBDC02C2F1200300FA78
:1049B00003FC20FA02F001FA03FE40EA0E0021FA9D
:1049C00002F11444C1E600BF70B54FF0FF0C4CF487
:1049D000E06C1CEA11541DBF1CEA135594EA0C0F3D
:1049E00095EA0C0F00F0DEF82C4481EA030621EA78
:1049F0004C5123EA4C5350EA013518BF52EA0335B3
:104A000041F4801143F4801338D0A0FB02CE4FF064
:104A10000005E1FB02E506F00042E0FB03E54FF094
:104A20000006E1FB03569CF0000F18BF4EF0010E8C
:104A3000A4F1FF04B6F5007F64F5407404D25FEA88
:104A40004E0E6D4146EB060642EAC62141EA55513B
:104A50004FEAC52040EA5E504FEACE2EB4F1FD0C7D
:104A600088BFBCF5E06F1ED8BEF1004F08BF5FEAFB
:104A7000500E50F1000041EB045170BD06F00046AD
:104A800046EA010140EA020081EA0301B4EB5C045A
:104A9000C2BFD4EB0C0541EA045170BD41F4801152
:104AA0004FF0000E013C00F3AB8014F1360FDEBF77
:104AB000002001F0004170BDC4F10004203C35DA53
:104AC0000C341BDC04F11404C4F1200500FA05F3D6
:104AD00020FA04F001FA05F240EA020001F0004277
:104AE00021F0004110EBD37021FA04F642EB0601ED
:104AF0005EEA430E08BF20EAD37070BDC4F10C0417
:104B0000C4F1200500FA04F320FA05F001FA04F2DA
:104B100040EA020001F0004110EBD37041F10001C6
:104B20005EEA430E08BF20EAD37070BDC4F12005D1
:104B300000FA05F24EEA020E20FA04F301FA05F239
:104B400043EA020321FA04F001F0004121FA04F2E1
:104B500020EA020000EBD3705EEA430E08BF20EAB1
:104B6000D37070BD94F0000F0FD101F000464000EB
:104B700041EB010111F4801F08BF013CF7D041EA6D
:104B8000060195F0000F18BF704703F00046520071
:104B900043EB030313F4801F08BF013DF7D043EA42
:104BA0000603704794EA0C0F0CEA135518BF95EAF8
:104BB0000C0F0CD050EA410618BF52EA4306D1D17F
:104BC00081EA030101F000414FF0000070BD50EA9E
:104BD000410606BF1046194652EA430619D094EA28
:104BE0000C0F02D150EA013613D195EA0C0F05D112
:104BF00052EA03361CBF104619460AD181EA030166
:104C000001F0004141F0FE4141F470014FF000001D
:104C100070BD41F0FE4141F4780170BD70B54FF0B8
:104C2000FF0C4CF4E06C1CEA11541DBF1CEA135538
:104C300094EA0C0F95EA0C0F00F0A7F8A4EB05041A
:104C400081EA030E52EA03354FEA013100F0888011
:104C50004FEA03334FF0805545EA131343EA1263DA
:104C60004FEA022245EA111545EA10654FEA00268F
:104C70000EF000419D4208BF964244F1FD0404F548
:104C8000407402D25B084FEA3202B61A65EB0305A4
:104C90005B084FEA32024FF480104FF4002CB6EB61
:104CA000020E75EB030E22BFB61A754640EA0C00E1
:104CB0005B084FEA3202B6EB020E75EB030E22BF21
:104CC000B61A754640EA5C005B084FEA3202B6EB62
:104CD000020E75EB030E22BFB61A754640EA9C0021
:104CE0005B084FEA3202B6EB020E75EB030E22BFF1
:104CF000B61A754640EADC0055EA060E18D04FEAAF
:104D0000051545EA16754FEA06164FEAC30343EA4E
:104D100052734FEAC2025FEA1C1CC0D111F4801F1B
:104D20000BD141EA00014FF000004FF0004CB6E714
:104D300011F4801F04BF01430020B4F1FD0C88BFB3
:104D4000BCF5E06F3FF6AFAEB5EB030C04BFB6EBBE
:104D5000020C5FEA500C50F1000041EB045170BDB1
:104D60000EF0004E4EEA113114EB5C04C2BFD4EBDE
:104D70000C0541EA045170BD41F480114FF0000E62
:104D8000013C90E645EA060E8DE60CEA135594EADE
:104D90000C0F08BF95EA0C0F3FF43BAF94EA0C0FE1
:104DA0000AD150EA01347FF434AF95EA0C0F7FF456
:104DB00025AF104619462CE795EA0C0F06D152EAAA
:104DC00003353FF4FDAE1046194622E750EA41068E
:104DD00018BF52EA43067FF4C5AE50EA41047FF49F
:104DE0000DAF52EA43057FF4EBAE12E74FF0FF3C04
:104DF00006E000BF4FF0010C02E000BF4FF0010CD5
:104E00004DF804CD4FEA410C7FEA6C5C4FEA430C4D
:104E100018BF7FEA6C5C1BD001B050EA410C0CBF9C
:104E200052EA430C91EA030F02BF90EA020F0020FE
:104E3000704710F1000F91EA030F58BF994208BF65
:104E400090422CBFD8176FEAE37040F00100704722
:104E50004FEA410C7FEA6C5C02D150EA013C07D179
:104E60004FEA430C7FEA6C5CD6D152EA033CD3D0C4
:104E70005DF8040B704700BF8446104662468C46BE
:104E80001946634600E000BF01B5FFF7B7FF0028F1
:104E900048BF10F1000F01BD4DF808EDFFF7F4FF1A
:104EA0000CBF012000205DF808FB00BF4DF808EDA5
:104EB000FFF7EAFF34BF012000205DF808FB00BFC8
:104EC0004DF808EDFFF7E0FF94BF012000205DF8EA
:104ED00008FB00BF4DF808EDFFF7CEFF94BF01209F
:104EE00000205DF808FB00BF4DF808EDFFF7C4FF98
:104EF00034BF012000205DF808FB00BF4FEA410CE1
:104F00007FEA6C5C02D150EA013C0AD14FEA430CC3
:104F10007FEA6C5C02D152EA033C02D14FF0000000
:104F200070474FF00100704780F0004002E000BF82
:104F300081F0004142001FBF5FEA410392EA030F84
:104F40007FEA226C7FEA236C6AD04FEA1262D2EBCE
:104F50001363C1BFD218414048404140B8BF5B42D3
:104F6000192B88BF704710F0004F40F4000020F06C
:104F70007F4018BF404211F0004F41F4000121F082
:104F80007F4118BF494292EA030F3FD0A2F10102CC
:104F900041FA03FC10EB0C00C3F1200301FA03F10A
:104FA00000F0004302D5494260EB4000B0F5000F2D
:104FB00013D3B0F1807F06D340084FEA310102F1EC
:104FC0000102FE2A51D2B1F1004F40EBC25008BF9E
:104FD00020F0010040EA03007047490040EB000068
:104FE00010F4000FA2F10102EDD1B0FA80FCACF197
:104FF000080CB2EB0C0200FA0CF0AABF00EBC25096
:1050000052421843BCBFD0401843704792F0000F83
:1050100081F4000106BF80F400000132013BB5E7D6
:105020004FEA41037FEA226C18BF7FEA236C21D04C
:1050300092EA030F04D092F0000F08BF08467047B1
:1050400090EA010F1CBF0020704712F07F4F04D17F
:10505000400028BF40F00040704712F100723CBF92
:1050600000F50000704700F0004343F0FE4040F4BC
:10507000000070477FEA226216BF08467FEA23637A
:105080000146420206BF5FEA412390EA010F40F465
:10509000800070474FF0000304E000BF10F00043B1
:1050A00048BF40425FEA000C08BF704743F0964398
:1050B00001464FF000001CE050EA010208BF7047B3
:1050C0004FF000030AE000BF50EA010208BF70473A
:1050D00011F0004302D5404261EB41015FEA010C4F
:1050E00002BF84460146002043F0B64308BFA3F147
:1050F0008053A3F50003BCFA8CF2083AA3EBC25329
:1051000010DB01FA02FC634400FA02FCC2F1200247
:10511000BCF1004F20FA02F243EB020008BF20F07E
:105120000100704702F1200201FA02FCC2F12002E4
:1051300050EA4C0021FA02F243EB020008BF20EAD9
:10514000DC7070474FF0FF0C1CEAD0521EBF1CEA07
:10515000D15392EA0C0F93EA0C0F6FD01A4480EAF5
:10516000010C400218BF5FEA41211ED04FF00063DE
:1051700043EA501043EA5111A0FB01310CF000400A
:10518000B1F5000F3EBF490041EAD3715B0040EA30
:10519000010062F17F02FD2A1DD8B3F1004F40EB00
:1051A000C25008BF20F00100704790F0000F0CF0D3
:1051B000004C08BF49024CEA502040EA51207F3A97
:1051C000C2BFD2F1FF0340EAC250704740F4000072
:1051D0004FF00003013A5DDC12F1190FDCBF00F063
:1051E00000407047C2F10002410021FA02F1C2F111
:1051F000200200FA02FC5FEA310040F1000053EAAD
:105200004C0308BF20EADC70704792F0000F00F0FA
:10521000004C02BF400010F4000F013AF9D040EA00
:105220000C0093F0000F01F0004C02BF490011F494
:10523000000F013BF9D041EA0C018FE70CEAD15392
:1052400092EA0C0F18BF93EA0C0F0AD030F0004C12
:1052500018BF31F0004CD8D180EA010000F00040C6
:10526000704790F0000F17BF90F0004F084691F084
:10527000000F91F0004F14D092EA0C0F01D14202BE
:105280000FD193EA0C0F03D14B0218BF084608D187
:1052900080EA010000F0004040F0FE4040F40000D1
:1052A000704740F0FE4040F4400070474FF0FF0C64
:1052B0001CEAD0521EBF1CEAD15392EA0C0F93EAAB
:1052C0000C0F69D0A2EB030280EA010C49024FEAFD
:1052D000402037D04FF0805343EA111143EA1013B6
:1052E0000CF000408B4238BF5B0042F17D024FF46E
:1052F000000C8B4224BF5B1A40EA0C00B3EB510F49
:1053000024BFA3EB510340EA5C00B3EB910F24BF31
:10531000A3EB910340EA9C00B3EBD10F24BFA3EBB6
:10532000D10340EADC001B0118BF5FEA1C1CE0D17E
:10533000FD2A3FF650AF8B4240EBC25008BF20F031
:10534000010070470CF0004C4CEA50207F32C2BF85
:10535000D2F1FF0340EAC250704740F400004FF022
:105360000003013A37E792F0000F00F0004C02BF53
:10537000400010F4000F013AF9D040EA0C0093F01D
:10538000000F01F0004C02BF490011F4000F013B77
:10539000F9D041EA0C0195E70CEAD15392EA0C0FDF
:1053A00008D142027FF47DAF93EA0C0F7FF470AF17
:1053B000084676E793EA0C0F04D14B023FF44CAF5A
:1053C00008466EE730F0004C18BF31F0004CCAD1EF
:1053D00030F000427FF45CAF31F000437FF43CAF2B
:1053E0005FE700BF4FF0FF3C06E000BF4FF0010C4D
:1053F00002E000BF4FF0010C4DF804CD4FEA40022F
:105400004FEA41037FEA226C18BF7FEA236C11D078
:1054100001B052EA530C18BF90EA010F58BFB2EB2B
:10542000030088BFC81738BF6FEAE17018BF40F0AB
:10543000010070477FEA226C02D15FEA402C05D15F
:105440007FEA236CE4D15FEA412CE1D05DF8040BE4
:10545000704700BF844608466146FFE70FB5FFF777
:10546000C9FF002848BF10F1000F0FBD4DF808ED2F
:10547000FFF7F4FF0CBF012000205DF808FB00BF20
:105480004DF808EDFFF7EAFF34BF012000205DF87A
:1054900008FB00BF4DF808EDFFF7E0FF94BF0120C7
:1054A00000205DF808FB00BF4DF808EDFFF7D2FFC4
:1054B00094BF012000205DF808FB00BF4DF808ED07
:1054C000FFF7C8FF34BF012000205DF808FB00BFD4
:1054D00042000ED2B2F1FE4F0BD34FF09E03B3EB5E
:1054E000126209D44FEA002343F0004323FA02F08A
:1054F00070474FF00000704712F1610F01D1420276
:1055000002D14FF0FF3070474FF00000704700BFEE
:10551000014B1868704700BFA892FF1F70B50F4E6F
:105520000F4D761BB61018BF002405D0013455F876
:10553000043B9847A642F9D10A4E0B4D761B05F065
:1055400003FBB61018BF002406D0013455F8043B05
:105550009847A642F9D170BD70BD00BF54AB0000A2
:1055600054AB000074AB000054AB0000D0F8EC006A
:10557000704700BF024B0146186800F003B800BF37
:10558000A892FF1F2DE9F04F01F10B05162D83B0F6
:10559000064640F29F8035F0070500F1BF80A94222
:1055A00000F2BC8000F06EFBB5F5FC7FC0F09C8281
:1055B0006B0A00F0BA80042B00F28381A80900F185
:1055C000390E4FEA4E033830C44F07EB8303A3F183
:1055D00008015C68A14207D1ACE0002A80F2AC80EF
:1055E000E468A14200F0A680636823F003035A1B1D
:1055F0000F2AF2DDB9493C6901F1080E744500F04B
:10560000B381636823F003035A1B0F2A00F39981C7
:10561000002AC1F814E0C1F810E080F29E80B3F5D2
:10562000007F80F06781DB0803F1010C01229B10F1
:1056300002FA03F34A6851F83C80C4F8088001EB91
:10564000CC091A43A9F10803E3604A6041F83C40E1
:10565000C8F80C40831001249C40944200F28A80D8
:10566000144206D120F003006400144200F104004B
:10567000FAD007EBC009CC468046DCF80C108C450C
:1056800007D173E1002A80F28181C9688C4500F05E
:105690006D814B6823F003035A1B0F2AF2DD0C4681
:1056A000D1F80CC054F8088F4B1945F001054D6036
:1056B00042F00101C8F80CC03046CCF808807B618C
:1056C0003B61C3F80CE0C3F808E059609A5000F061
:1056D000DBFA1FE0102921D800F0D4FA10250623A8
:1056E00002207E4F07EB8303A3F108025C6894421B
:1056F00000F045816368E168A56823F00303234453
:1057000030465A68E96042F001028D605A6000F04C
:10571000BBFA0834204603B0BDE8F08F00240C2308
:105720002046336003B0BDE8F08F80234FF0400E79
:105730003F2049E770465DE72344E1685A68A56861
:1057400042F00102E96030468D605A6000F09CFA38
:105750000834204603B0BDE8F08F234430465A6831
:1057600042F001025A6000F08FFA0834204603B07C
:10577000BDE8F08FBC68636823F00308A84504D334
:10578000C5EB08030F2B00F38C80554BDFF86091BD
:105790001A68D9F8003001332A4404EB080A00F0F3
:1057A000608102F580520F3222F47F6222F00F02F4
:1057B00011463046019200F059FCB0F1FF3F83469C
:1057C000019A00F05881824500F2FC80454B19682F
:1057D000DA451144196000F05381D9F80000DFF870
:1057E00010E101301BBFCAEB0B0A5144CEF800B0E8
:1057F00019601BF0070100F01781C1F10800C1F525
:105800008051834408315A44C2F30B02C2EB0109B0
:1058100049463046019300F029FC431C019B00F0EF
:105820003F81CBEB00024A4442F001021968C7F8FD
:1058300008B04944BC42CBF804201960DFF8A490BA
:1058400016D0B8F10F0F40F2FD806268A8F10C038A
:1058500023F00703E01802F001024FF0050E1A438F
:105860000F2B6260C0F804E0C0F808E000F21C8171
:105870001D4BBC681A68914288BF19601B4B1A689F
:105880009142626888BF196022F003029542A2EB40
:10589000050301D80F2B04DC304600F0F5F9002495
:1058A00038E7621943F0010345F0010565603046B1
:1058B000BA60536000F0E8F90834204603B0BDE850
:1058C000F08F142B71D9542B00F2A480280B00F117
:1058D0006F0E4FEA4E036E3076E600BF1894FF1F3E
:1058E000009CFF1F049CFF1FFC9BFF1FF89BFF1FDA
:1058F0002498FF1F5A0A042A5ED9142A00F2B380A2
:1059000002F15C0149005B3207EB810C57F8211072
:10591000DFF8DC81ACF1080C8C4500F088804A6827
:1059200022F00302934202D289688C45F7D1D1F864
:105930000CC07A68C4F80CC0A160CCF80840CC60F8
:1059400088E6631942F0010745F0010565603046BD
:105950004B610B61C3F80CE0C3F808E05F609A503C
:10596000083400F091F9D5E64A6873E608F10108B9
:1059700018F0030F0CF1080C7FF47FAE30E0DC6808
:10598000A34208BF02303FF435AEB3E60B440C46E9
:105990005A68C96854F8085F42F001025A603046FC
:1059A000E9608D6000F070F9B4E603F15C0E03F17C
:1059B0005B004FEA4E0307E69A0902F139014900FC
:1059C0003832A1E7BC424A4B3FF400AF9C686268A2
:1059D00022F003025AE759F80839994540F08280CD
:1059E00010F0030F00F1FF30F5D17B6823EA0403C8
:1059F0007B6064009C423FF6BDAE002C3FF4BAAE23
:105A00001C4240467FF435AE64001C4200F10400A5
:105A1000FAD02EE6B3F5AA7F18D8E80B00F1780E7D
:105A20004FEA4E037730CFE54FF48051EBE601218A
:105A3000D8F80430921001FA02F21A43C8F8042090
:105A4000614677E70123CBF8043025E740F2545252
:105A5000934220D8A80C00F17D0E4FEA4E037C3013
:105A6000B2E51032A4E6542A26D81A0B02F16F01CF
:105A700049006E3248E7BC68626822F0030205E71D
:105A8000CAF30B0000287FF4A8AE4244BB6842F082
:105A900001025A60ECE6FE234FF07F0E7E2093E574
:105AA00001224FF00009C1E604F10801304600F080
:105AB00067FED9F80010DBE6B2F5AA7F05D8DA0B4D
:105AC00002F17801490077321EE740F254518A42D0
:105AD00005D89A0C02F17D0149007C3214E7FE21C1
